:03000000020250A9
:10000B00C28CF53885F03B85013E85003F853C0170
:10001B00853D0020001F7537087930E775F008A47F
:10002B00F539C2A1D2A0D2A1E539120100F4F580B5
:10003B00D2000200617580FFC2A1C2A0D2A1053916
:10004B00D537E509B93403020021E775F008A4F5AB
:10005B003975370880D285013C85003DE538853BF5
:0D006B00F0853E01853F00758A00D28C3281
:0301000004832253
:10010300003E676F7B73633E003F0C0C0C0C0E0CC0
:10011300003F33061C30331E001E33301C30331EA9
:100123000078307F33363C38001E3330301F033FB6
:10013300001E33331F03061C000C0C0C1830333F16
:10014300001E33331E33331E000E18303E33331E6E
:100153000033333F33331E0C003F66663E66663F13
:10016300003C66030303663C001F36666666361F63
:10017300007F46161E16467F000F06161E16467F84
:10018300000000003C000000000C000C1830331E7F
:10019300006766366E66663F0063777F6B636363F3
:0801A300000000000000000054
:10025000753114753214753314758912758C0075E7
:100260008A00C200D2AFD2A9D28C75301220B7104A
:1002700030B7FDE530B413057530128003753013C7
:10028000C20112030A3001E5753110753210753361
:10029000107F03C20112030A3001F8853231853321
:1002A00032F533DFEE12041674A0453112042FE547
:1002B00032C4453312042F753114E530B4121F12C5
:1002C000040574A112042F12045D120454120423B5
:1002D000F53353330FC4F53253320F020306753230
:1002E000107533107F02C20112030A3001F8853302
:1002F00032F533DFF1E532C4453312042F12042303
:10030000753214753314E402026D75900F20903A23
:10031000D29430900A7401C2943090FD020347D207
:100320009530900A7404C2953090FD020347D2962E
:1003300030900A7407C2963090FD0203477400C2E1
:10034000973090FD02034702040220913AD2943084
:10035000910A7402C2943091FD020384D2953091C7
:100360000A7405C2953091FD020384D29630910A39
:100370007408C2963091FD020384740DC2973091C7
:10038000FD02038402040220923AD29430920A744D
:1003900003C2943092FD0203C1D29530920A7406D2
:1003A000C2953092FD0203C1D29630920A7409C2FE
:1003B000963092FD0203C1740EC2973092FD020383
:0C03C000C102040220933AD29430930A48
:1003CC00740AC2943093FD0203FED29530930A74E2
:1003DC000BC2953093FD0203FED29630930A740C37
:1003EC00C2963093FD0203FE740FC2973093FD0248
:1003FC0003FE02040222D20122C2A4D2A3D2A4126E
:10040C000471C2A3120471C2A422D2A4120471C238
:10041C00A3120471C2A422C2A4C2A3D2A412047156
:10042C00D2A3227C08C2A41204713392A3D2A412C8
:10043C000471DCF1C2A4D2A3D2A4A2A3C2A422C28E
:10044C00A3D2A4C2A4D2A322D2A3D2A4C2A4D2A4C3
:10045C00227C08C2A4120471D2A4120471A2A33388
:0A046C00DCF1C2A4227B05DBFE22B6
:00000001FF
